:100000000C9436000C945E000C945E000C94A402D8
:100010000C94A4020C94A4020C945E000C945E0058
:100020000C945E000C945E000C945E000C945E00D8
:100030000C945E000C945E000C945E000C945E00C8
:100040000C945A020C945E000C9428020C94020248
:100050000C945E000C945E000C945E000C945E00A8
:100060000C945E000C945E00C802260411241FBE8E
:10007000CFEFD8E0DEBFCDBF22E0AAE4B1E001C0FF
:100080001D92A230B207E1F711E0A0E0B1E0E4ED8B
:10009000FCE002C005900D92AA34B107D9F710E038
:1000A000C5E3D0E004C02197FE010E946504C4337B
:1000B000D107C9F70E9436030C945D060C9400002A
:1000C000AF92BF92CF92DF92EF92FF920F931F9366
:1000D000CF93DF936C017B018B01040F151FEB01A4
:1000E0005E01AE18BF08C017D10759F06991D6015B
:1000F000ED91FC910190F081E02DC6010995892BCD
:1001000079F7C501DF91CF911F910F91FF90EF908B
:10011000DF90CF90BF90AF900895FC01538D448D38
:10012000252F30E0842F90E0821B930B541710F0A2
:10013000CF96089501970895FC01918D828D9817AF
:1001400061F0A28DAE0FBF2FB11D5D968C91928D87
:100150009F5F9F73928F90E008958FEF9FEF0895B8
:10016000FC01918D828D981731F0828DE80FF11D81
:10017000858D90E008958FEF9FEF0895FC01918D9C
:10018000228D892F90E0805C9F4F821B91098F7395
:100190009927089585E591E00E94BE0021E0892B12
:1001A00009F420E0822F089580E090E0892B29F067
:1001B0000E94CA0081110C9400000895FC01A48DD6
:1001C000A80FB92FB11DA35ABF4F2C91848D90E079
:1001D00001968F739927848FA689B7892C93A0895C
:1001E000B1898C91837080648C93938D848D9813E6
:1001F00006C00288F389E02D80818F7D8083089579
:10020000EF92FF920F931F93CF93DF93EC0181E066
:10021000888F9B8D8C8D98131AC0E889F98980810D
:1002200085FF15C09FB7F894EE89FF896083E88940
:10023000F98980818370806480839FBF81E090E032
:10024000DF91CF911F910F91FF90EF900895F62EBF
:100250000B8D10E00F5F1F4F0F731127E02E8C8D59
:100260008E110CC00FB607FCFACFE889F98980819E
:1002700085FFF5CFCE010E94DE00F1CFEB8DEC0FB4
:10028000FD2FF11DE35AFF4FF0829FB7F8940B8FBB
:10029000EA89FB8980818062CFCFCF93DF93EC0125
:1002A000888D8823B9F0AA89BB89E889F9898C915E
:1002B00085FD03C0808186FD0DC00FB607FCF7CF1A
:1002C0008C9185FFF2CF808185FFEDCFCE010E941A
:1002D000DE00E9CFDF91CF9108953FB7F894809188
:1002E000510190915201A0915301B091540126B552
:1002F000A89B05C02F3F19F00196A11DB11D3FBF5E
:10030000BA2FA92F982F8827BC01CD01620F711D2C
:10031000811D911D42E0660F771F881F991F4A9526
:10032000D1F7089542E050E068E171E085E591E0A1
:100330000C946000FC0180819181009711F00C9475
:1003400007050895EF92FF920F931F93CF93DF93CA
:10035000EC017B018A0188819981009729F02A812B
:100360003B812417350788F4B8016F5F7F4F0E94E7
:100370009005009791F0998388831B830A832C81D1
:100380003D81232B11F4FC0110821D830C83B701E6
:10039000888199810E9456060CC0888199810097B6
:1003A00011F00E940705198218821D821C821B828F
:1003B0001A82CE01DF91CF911F910F91FF90EF90A4
:1003C0000895CF93DF93EC01FB018617970749F05F
:1003D000608171816115710541F0448155810E94F0
:1003E000A201CE01DF91CF91089588819981009774
:1003F00011F00E940705198218821D821C821B823F
:100400001A82EFCF1F920F920FB60F9211242F93E3
:100410003F934F935F936F937F938F939F93AF938C
:10042000BF93EF93FF9385E591E00E94DE00FF917B
:10043000EF91BF91AF919F918F917F916F915F915C
:100440004F913F912F910F900FBE0F901F901895D5
:100450001F920F920FB60F9211242F938F939F9399
:10046000EF93FF93E0916501F09166018081E09147
:100470006B01F0916C0182FD1BC0908180916E0137
:100480008F5F8F7320916F01821741F0E0916E01B1
:10049000F0E0EB5AFE4F958F80936E01FF91EF9144
:1004A0009F918F912F910F900FBE0F901F901895D5
:1004B0008081F4CF1F920F920FB60F9211242F93C9
:1004C0003F938F939F93AF93BF9380914D019091F2
:1004D0004E01A0914F01B091500130914C0123E0A9
:1004E000230F2D3758F50196A11DB11D20934C0106
:1004F00080934D0190934E01A0934F01B093500112
:100500008091510190915201A0915301B0915401F9
:100510000196A11DB11D8093510190935201A093AA
:100520005301B0935401BF91AF919F918F913F912F
:100530002F910F900FBE0F901F90189526E8230F54
:100540000296A11DB11DD2CF1F920F920FB60F922E
:1005500011240F900FBE0F901F9018950F931F93AB
:10056000CF93DF93EC018B01198218821B821A82D0
:100570001D821C8250E040E06AE171E00E94A2010D
:10058000B801CE01DF91CF911F910F910C94E10141
:10059000CF93DF9300D000D000D0CDB7DEB7E5E534
:1005A000F1E01382128288EE93E0A0E0B0E0848351
:1005B0009583A683B7838AE091E09183808385EC5D
:1005C00090E09587848784EC90E09787868780EC1D
:1005D00090E0918B808B81EC90E0938B828B82EC0E
:1005E00090E0958B848B86EC90E0978B868B118EB8
:1005F000128E138E148E1A8219821C821B821E8206
:100600001D8240E150E06BE171E0CE0101960E9455
:10061000A201BE016F5F7F4F88EF91E00E94AE02A2
:10062000CE0101960E949A011A8219821C821B82B5
:100630001E821D8240E150E06CE271E0CE01019625
:100640000E94A201BE016F5F7F4F82EF91E00E9486
:10065000AE02CE0101960E949A0126960FB6F8943A
:10066000DEBF0FBECDBFDF91CF910895CF93DF9353
:1006700000D000D000D0CDB7DEB7789484B58260CA
:1006800084BD84B5816084BD85B5826085BD85B536
:10069000816085BD80916E00816080936E001092B4
:1006A000810080918100826080938100809181002F
:1006B00081608093810080918000816080938000C0
:1006C0008091B10084608093B1008091B00081601E
:1006D0008093B00080917A00846080937A0080914A
:1006E0007A00826080937A0080917A0081608093A2
:1006F0007A0080917A00806880937A001092C1001D
:10070000E0916501F091660182E08083E0916101F2
:10071000F09162011082E0916301F09164018FEC2D
:10072000808310926D01E0916901F0916A0186E089
:100730008083E0916701F09168018081806180830E
:10074000E0916701F0916801808188608083E09189
:100750006701F0916801808180688083E091670182
:10076000F091680180818F7D808300E010E04CE093
:1007700050E06DE371E085E591E00E9460000E9429
:1007800092011A8219821C821B821E821D8268EFCE
:1007900071E0CE0101960E94E1014D815E81698187
:1007A0007A8185E591E00E9460000E949201CE016D
:1007B00001960E949A011A8219821C821B821E8253
:1007C0001D8262EF71E0CE0101960E94E1014D8130
:1007D0005E8169817A8185E591E00E9460000E94D6
:1007E0009201CE0101960E949A010E946D014B0177
:1007F0005C0188EEC82E83E0D82EE12CF12C0E94FB
:100800006D01681979098A099B09683E7340810561
:100810009105A8F321E0C21AD108E108F10888EE99
:10082000880E83E0981EA11CB11CC114D104E10400
:10083000F10429F70115110509F499CF0E94CA00A6
:10084000882309F494CF0E94000091CF82EF91E0B9
:100850000E949A0188EF91E00C949A012F923F92A6
:100860004F925F926F927F928F929F92AF92BF92C0
:10087000CF92DF92EF92FF920F931F93CF93DF936C
:10088000CDB7DEB7CA1BDB0B0FB6F894DEBF0FBEC9
:10089000CDBF09942A88398848885F846E847D8416
:1008A0008C849B84AA84B984C884DF80EE80FD8018
:1008B0000C811B81AA81B981CE0FD11D0FB6F8948E
:1008C000DEBF0FBECDBFED010895EE0FFF1F0590F7
:1008D000F491E02D09940F931F93CF93DF9382300F
:1008E000910510F482E090E0E0910002F0910102A5
:1008F00030E020E0B0E0A0E0309799F42115310518
:1009000009F44AC0281B390B24303105D8F58A81F7
:100910009B816115710589F1FB0193838283FE013F
:1009200011C0408151810281138148175907E0F0BD
:100930004817590799F4109761F012960C93129783
:1009400013961C933296CF01DF91CF911F910F9197
:1009500008950093000210930102F4CF2115310590
:1009600051F04217530738F0A901DB019A01BD018C
:10097000DF01F801C1CFEF01F9CF9093010280931D
:100980000002CDCFFE01E20FF31F8193919322501D
:10099000310939832883D7CF2091FE013091FF019F
:1009A000232B41F420910201309103013093FF0188
:1009B0002093FE01209100013091010121153105A4
:1009C00041F42DB73EB74091040150910501241B1D
:1009D000350BE091FE01F091FF01E217F307A0F45F
:1009E0002E1B3F0B2817390778F0AC014E5F5F4F85
:1009F0002417350748F04E0F5F1F5093FF014093B7
:100A0000FE01819391939FCFF0E0E0E09CCFCF93E4
:100A1000DF930097E9F0FC01329713821282A091D4
:100A20000002B0910102ED0130E020E01097A1F446
:100A300020813181820F931F2091FE013091FF01AF
:100A40002817390709F061C0F093FF01E093FE0118
:100A5000DF91CF910895EA01CE17DF07E8F54A81CB
:100A60005B819E0141155105B1F7E901FB83EA83E2
:100A700049915991C40FD51FEC17FD0761F480818E
:100A800091810296840F951FE90199838883828161
:100A900093819B838A83F0E0E0E012968D919C9194
:100AA00013970097B9F52D913C911197CD010296BE
:100AB000820F931F2091FE013091FF012817390703
:100AC00039F6309751F51092010210920002B0935E
:100AD000FF01A093FE01BCCFD383C283408151812B
:100AE000840F951FC817D90761F44E5F5F4F888147
:100AF0009981480F591F518340838A819B81938339
:100B000082832115310509F0B0CFF0930102E09303
:100B100000029ECFFD01DC01C0CF13821282D7CF2D
:100B2000B0E0A0E0E6E9F5E00C9430048C01009719
:100B300051F4CB010E946B048C01C801CDB7DEB724
:100B4000E0E10C944C04FC01E60FF71F9C012250DD
:100B50003109E217F30708F49DC0D901CD91DC916A
:100B60001197C617D70798F0C530D10530F3CE01DD
:100B700004978617970708F3C61BD70B2297C193D4
:100B8000D1936D937C93CF010E940705D6CF5B0173
:100B9000AC1ABD0A4C018C0E9D1EA0910002B091B2
:100BA0000102512C412CF12CE12C109731F5809150
:100BB000FE019091FF018815990509F05CC0461669
:100BC000570608F058C080910001909101010097EC
:100BD00041F48DB79EB74091040150910501841BEB
:100BE000950BE817F90708F055C0F093FF01E09363
:100BF000FE01F90171836083A0CF8D919C911197C3
:100C000012966C90129713967C901397A815B905BD
:100C100059F56C0142E0C40ED11CCA14DB0420F16A
:100C2000AC014A195B09DA011296159780F06282CD
:100C3000738251834083D9016D937C93E114F10455
:100C400071F0D7011396FC93EE93129776CF22960C
:100C50008C0F9D1FF90191838083F301EFCFF093F7
:100C60000102E093000269CF4816590608F42C01EE
:100C70007D01D3019ACFCB010E946B047C010097C8
:100C800049F0AE01B8010E944D06C8010E94070557
:100C9000870153CF10E000E050CFFB01DC0102C020
:100CA00001900D9241505040D8F70895FB01DC01AE
:100CB00001900D920020E1F7089510E0C5E3D0E027
:100CC00004C0FE010E9465042196C633D107C9F70E
:040CD000F894FFCFC6
:100CD40000000202800000000000000160008D009E
:100CE4004D01BE009C00B0000D0A0048656C6C6F9D
:100CF4002066726F6D204C696231210048656C6C0E
:100D04006F2066726F6D204C696232210048656CF9
:0A0D14006C6F20576F726C642100B1
:00000001FF
