:020000040000FA
:100000000C945D000C9485000C9485000C944C03BA
:100010000C944C030C944C030C9485000C948500B8
:100020000C9485000C9485000C9485000C9485003C
:100030000C9485000C9485000C9485000C9485002C
:100040000C94AA020C9485000C941A030C94F402EC
:100050000C9485000C9485000C9485000C9485000C
:100060000C9485000C94850000000008000201003B
:100070000003040700000000000000000000000072
:10008000250028002B0000000000240027002A0083
:10009000040404040404040402020202020203032E
:1000A0000303030301020408102040800102040836
:1000B0001020010204081020560311241FBECFEFA8
:1000C000D8E0DEBFCDBF11E0A0E0B1E0E2E5FAE0AC
:1000D00002C005900D92AA34B107D9F722E0AAE434
:1000E000B1E001C01D92A231B207E1F710E0CDE509
:1000F000D0E004C02197FE010E942105CC35D10734
:10010000C9F70E9411040C9427050C94000090E09C
:10011000FC01EC55FF4F249180579F4FFC018491C7
:10012000882399F090E0880F991FFC01EA57FF4F50
:10013000A591B491FC01E458FF4F859194918FB73C
:10014000F894EC91E22BEC938FBF0895AF92BF929D
:10015000CF92DF92EF92FF920F931F93CF93DF9393
:100160006C017B018B01040F151FEB015E01AE18C2
:10017000BF08C017D10759F06991D601ED91FC91E4
:100180000190F081E02DC6010995892B79F7C50111
:10019000DF91CF911F910F91FF90EF90DF90CF9063
:1001A000BF90AF900895FC01538D448D252F30E012
:1001B000842F90E0821B930B541710F0CF96089574
:1001C00001970895FC01918D828D981761F0A28DA1
:1001D000AE0FBF2FB11D5D968C91928D9F5F9F7367
:1001E000928F90E008958FEF9FEF0895FC01918D1D
:1001F000828D981731F0828DE80FF11D858D90E08A
:1002000008958FEF9FEF0895FC01918D228D892F26
:1002100090E0805C9F4F821B91098F73992708950E
:1002200089E591E00E94040121E0892B09F420E096
:10023000822F089580E090E0892B29F00E94100120
:1002400081110C9400000895FC01A48DA80FB92F12
:10025000B11DA35ABF4F2C91848D90E001968F73EE
:100260009927848FA689B7892C93A089B1898C910D
:10027000837080648C93938D848D981306C002885C
:10028000F389E02D80818F7D80830895EF92FF9226
:100290000F931F93CF93DF93EC0181E0888F9B8DA9
:1002A0008C8D98131AC0E889F989808185FF15C063
:1002B0009FB7F894EE89FF896083E889F989808186
:1002C0008370806480839FBF81E090E0DF91CF9155
:1002D0001F910F91FF90EF900895F62E0B8D10E077
:1002E0000F5F1F4F0F731127E02E8C8D8E110CC0E6
:1002F0000FB607FCFACFE889F989808185FFF5CF31
:10030000CE010E942401F1CFEB8DEC0FFD2FF11DEA
:10031000E35AFF4FF0829FB7F8940B8FEA89FB896D
:1003200080818062CFCFCF93DF93EC01888D8823CB
:10033000B9F0AA89BB89E889F9898C9185FD03C048
:10034000808186FD0DC00FB607FCF7CF8C9185FF2D
:10035000F2CF808185FFEDCFCE010E942401E9CF4D
:10036000DF91CF91089590E0FC01E859FF4F24916F
:10037000FC01EC55FF4F3491FC01E057FF4FE49135
:10038000EE23C9F0222339F0233001F1A8F4213003
:1003900019F1223029F1F0E0EE0FFF1FE458FF4F72
:1003A000A591B4918FB7F894EC91611126C0309566
:1003B0003E233C938FBF08952730A9F02830C9F021
:1003C000243049F7809180008F7D03C080918000A8
:1003D0008F7780938000DFCF84B58F7784BDDBCFAC
:1003E00084B58F7DFBCF8091B0008F778093B00074
:1003F000D2CF8091B0008F7DF9CF3E2BDACF8F9294
:100400009F92AF92BF92CF92DF92EF92FF920F93A3
:100410001F93CF93DF93CDB7DEB761970FB6F894F4
:10042000DEBF0FBECDBF5B0121E1E0E0F1E0DE0108
:10043000119601900D922A95E1F76C0110E000E011
:10044000EE24E394F12CEC0EFD1EE60EF71E9DE764
:10045000892E912CB40180E1A816B10418F4F7019B
:10046000608170E0002E02C0759567950A94E2F7EE
:100470006170F6018081F2E0CF0ED11C0E94B301C1
:100480000F5F1F4F0730110529F761960FB6F894DB
:10049000DEBF0FBECDBFDF91CF911F910F91FF90B7
:1004A000EF90DF90CF90BF90AF909F908F90089586
:1004B000FC0101900020E9F73197AF01481B590B6F
:1004C000BC0189E591E00C94A6000F931F93CF9394
:1004D000DF93CDB7DEB7A1970FB6F894DEBF0FBE9E
:1004E000CDBF482F50E070E060E019A2CE018196A8
:1004F0008A019B010F7011272227332724E076956C
:100500006795579547952A95D1F70A300CF5005D08
:10051000FC010293CF01411551056105710541F7B9
:1005200010E000E0EF2B19F00E9458028C0183E2EA
:1005300091E00E945802800F911FA1960FB6F89487
:10054000DEBF0FBECDBFDF91CF911F910F910895F8
:10055000095CDECF1F920F920FB60F9211242F93DA
:100560003F938F939F93AF93BF9380915501909149
:100570005601A0915701B09158013091540123E0E8
:10058000230F2D3758F50196A11DB11D209354015D
:100590008093550190935601A0935701B093580151
:1005A0008091500190915101A0915201B09153015D
:1005B0000196A11DB11D8093500190935101A0930C
:1005C0005201B0935301BF91AF919F918F913F9191
:1005D0002F910F900FBE0F901F90189526E8230FB4
:1005E0000296A11DB11DD2CF1F920F920FB60F928E
:1005F00011242F933F934F935F936F937F938F9328
:100600009F93AF93BF93EF93FF9389E591E00E948F
:100610002401FF91EF91BF91AF919F918F917F91B5
:100620006F915F914F913F912F910F900FBE0F905F
:100630001F9018951F920F920FB60F9211242F93AF
:100640008F939F93EF93FF93E0916901F0916A017B
:100650008081E0916F01F091700182FD1BC090815B
:10066000809172018F5F8F7320917301821741F027
:10067000E0917201F0E0E75AFE4F958F809372018E
:10068000FF91EF919F918F912F910F900FBE0F903F
:100690001F9018958081F4CF1F920F920FB60F9282
:1006A00011240F900FBE0F901F901895CF93DF93DA
:1006B00010925C0110925B0188EE93E0A0E0B0E044
:1006C00080935D0190935E01A0935F01B093600100
:1006D00085E191E090935A018093590185EC90E077
:1006E000909366018093650184EC90E0909368019B
:1006F0008093670180EC90E090936A018093690198
:1007000081EC90E090936C0180936B0182EC90E01F
:1007100090936E0180936D0186EC90E09093700150
:1007200080936F0110927201109273011092740104
:100730001092750182E090E090930502809304028C
:1007400083E090E0909307028093060284E090E0BB
:10075000909309028093080285E090E090930B0249
:1007600080930A0286E090E090930D0280930C0241
:1007700087E090E090930F0280930E0288E090E073
:100780009093110280931002C4E0D2E088812296F7
:100790000E948700FE01329761E080810E94B301D0
:1007A00082E0C231D80791F789E090E09093F70199
:1007B0008093F60182E190E09093F9018093F80133
:1007C0008EE090E09093FB018093FA018FE090E03F
:1007D0009093FD018093FC0180E190E09093FF01F4
:1007E0008093FE0181E190E09093010280930002EA
:1007F00083E190E09093030280930202C6EFD1E080
:10080000888122960E948700FE01329761E08081F4
:100810000E94B30182E0C430D80791F7DF91CF91F5
:100820000895789484B5826084BD84B5816084BD68
:1008300085B5826085BD85B5816085BD80916E007E
:10084000816080936E0010928100809181008260AF
:1008500080938100809181008160809381008091EC
:1008600080008160809380008091B10084608093DB
:10087000B1008091B00081608093B00080917A00D7
:10088000846080937A0080917A00826080937A00FD
:1008900080917A00816080937A0080917A008068EC
:1008A00080937A001092C100E0916901F0916A0191
:1008B00082E08083E0916501F09166011082E09111
:1008C0006701F09168018FEC808310927101E091D3
:1008D0006D01F0916E0186E08083E0916B01F091F3
:1008E0006C01808180618083E0916B01F0916C01EB
:1008F000808188608083E0916B01F0916C01808140
:1009000080688083E0916B01F0916C0180818F7D24
:10091000808361E08AE00E94B301CFB7F8948091B0
:100920004C01811124C0EAE9F0E08491EEEAF0E0A4
:100930009491E82FF0E0EE0FFF1FEA57FF4FA591CB
:10094000B491EC91E92321F461E08AE00E94B301C3
:100950008AE00E9487008CB580618CBD8CB5806474
:100960008CBD8DE00E9487008BE00E948700809103
:100970004C018F5F80934C01CFBF11E501E0C0E0D7
:10098000D0E089E591E00E9404011816190694F45C
:1009900089E591E00E94E20080934F018D3011F0D3
:1009A0008A3089F486E291E00E94580283E291E065
:1009B0000E945802209729F30E941001882309F30E
:1009C0000E940000DECF9C0194E0359527959A9512
:1009D000E1F72F70332720934E018F7080934D01E4
:1009E0008FE391E00E94580280914F010E946502BE
:1009F00080914E010E94650280914D010E94650226
:100A000060914D0170E084E092E00E94FF016091EE
:100A10004E0170E086EF91E00E94FF011CBD0DBD0C
:100A200060E08AE00E94B30180914F018EBD00001A
:100A30000DB407FEFDCF8EB561E08AE00E94B301E0
:100A4000B9CFEE0FFF1F0590F491E02D0994F894B3
:100A5000FFCF026E41482C18104E0008043013607E
:100A600011157D000000004601A600D3009301048B
:100A700001E200F6000D0A0052656365697665645F
:100A80002044206F72204120454F532062797465C5
:0C0A90000052656365697665643A2000D9
:107E0000112484B714BE81FFF0D085E080938100F7
:107E100082E08093C00088E18093C10086E0809377
:107E2000C20080E18093C4008EE0C9D0259A86E02C
:107E300020E33CEF91E0309385002093840096BBD3
:107E4000B09BFECF1D9AA8958150A9F7CC24DD24C4
:107E500088248394B5E0AB2EA1E19A2EF3E0BF2EE7
:107E6000A2D0813461F49FD0082FAFD0023811F036
:107E7000013811F484E001C083E08DD089C08234E0
:107E800011F484E103C0853419F485E0A6D080C0E4
:107E9000853579F488D0E82EFF2485D0082F10E0AE
:107EA000102F00270E291F29000F111F8ED06801E7
:107EB0006FC0863521F484E090D080E0DECF843638
:107EC00009F040C070D06FD0082F6DD080E0C81688
:107ED00080E7D80618F4F601B7BEE895C0E0D1E017
:107EE00062D089930C17E1F7F0E0CF16F0E7DF06D8
:107EF00018F0F601B7BEE89568D007B600FCFDCFD4
:107F0000A601A0E0B1E02C9130E011968C91119780
:107F100090E0982F8827822B932B1296FA010C0160
:107F200087BEE89511244E5F5F4FF1E0A038BF0790
:107F300051F7F601A7BEE89507B600FCFDCF97BE46
:107F4000E89526C08437B1F42ED02DD0F82E2BD052
:107F50003CD0F601EF2C8F010F5F1F4F84911BD097
:107F6000EA94F801C1F70894C11CD11CFA94CF0C13
:107F7000D11C0EC0853739F428D08EE10CD085E9AC
:107F80000AD08FE07ACF813511F488E018D01DD067
:107F900080E101D065CF982F8091C00085FFFCCF94
:107FA0009093C60008958091C00087FFFCCF809118
:107FB000C00084FD01C0A8958091C6000895E0E648
:107FC000F0E098E1908380830895EDDF803219F02E
:107FD00088E0F5DFFFCF84E1DECF1F93182FE3DFCA
:107FE0001150E9F7F2DF1F91089580E0E8DFEE27F6
:047FF000FF270994CA
:027FFE00040479
:00000001FF
